{
  "_format": "hh-sol-artifact-1",
  "contractName": "UniswapV2TWAP",
  "sourceName": "contracts/UniswapV2Oracle.sol",
  "abi": [
    {
      "inputs": [
        {
          "internalType": "contract IUniswapV2Pair",
          "name": "_pair",
          "type": "address"
        },
        {
          "internalType": "uint256",
          "name": "_period",
          "type": "uint256"
        }
      ],
      "stateMutability": "nonpayable",
      "type": "constructor"
    },
    {
      "inputs": [],
      "name": "PERIOD",
      "outputs": [
        {
          "internalType": "uint256",
          "name": "",
          "type": "uint256"
        }
      ],
      "stateMutability": "view",
      "type": "function"
    },
    {
      "inputs": [],
      "name": "blockTimestampLast",
      "outputs": [
        {
          "internalType": "uint32",
          "name": "",
          "type": "uint32"
        }
      ],
      "stateMutability": "view",
      "type": "function"
    },
    {
      "inputs": [
        {
          "internalType": "address",
          "name": "token",
          "type": "address"
        },
        {
          "internalType": "uint256",
          "name": "amountIn",
          "type": "uint256"
        }
      ],
      "name": "consult",
      "outputs": [
        {
          "internalType": "uint256",
          "name": "amountOut",
          "type": "uint256"
        }
      ],
      "stateMutability": "view",
      "type": "function"
    },
    {
      "inputs": [],
      "name": "pair",
      "outputs": [
        {
          "internalType": "contract IUniswapV2Pair",
          "name": "",
          "type": "address"
        }
      ],
      "stateMutability": "view",
      "type": "function"
    },
    {
      "inputs": [],
      "name": "price0Average",
      "outputs": [
        {
          "internalType": "uint224",
          "name": "_x",
          "type": "uint224"
        }
      ],
      "stateMutability": "view",
      "type": "function"
    },
    {
      "inputs": [],
      "name": "price0CumulativeLast",
      "outputs": [
        {
          "internalType": "uint256",
          "name": "",
          "type": "uint256"
        }
      ],
      "stateMutability": "view",
      "type": "function"
    },
    {
      "inputs": [],
      "name": "price1Average",
      "outputs": [
        {
          "internalType": "uint224",
          "name": "_x",
          "type": "uint224"
        }
      ],
      "stateMutability": "view",
      "type": "function"
    },
    {
      "inputs": [],
      "name": "price1CumulativeLast",
      "outputs": [
        {
          "internalType": "uint256",
          "name": "",
          "type": "uint256"
        }
      ],
      "stateMutability": "view",
      "type": "function"
    },
    {
      "inputs": [],
      "name": "token0",
      "outputs": [
        {
          "internalType": "address",
          "name": "",
          "type": "address"
        }
      ],
      "stateMutability": "view",
      "type": "function"
    },
    {
      "inputs": [],
      "name": "token1",
      "outputs": [
        {
          "internalType": "address",
          "name": "",
          "type": "address"
        }
      ],
      "stateMutability": "view",
      "type": "function"
    },
    {
      "inputs": [],
      "name": "update",
      "outputs": [],
      "stateMutability": "nonpayable",
      "type": "function"
    }
  ],
  "bytecode": "0x60e060405234801561001057600080fd5b50604051610e31380380610e318339818101604052604081101561003357600080fd5b5080516020918201516001600160601b0319606083901b1660805260408051630dfe168160e01b81529051929391926001600160a01b03851692630dfe16819260048082019391829003018186803b15801561008e57600080fd5b505afa1580156100a2573d6000803e3d6000fd5b505050506040513d60208110156100b857600080fd5b505160601b6001600160601b03191660a0526040805163d21220a760e01b815290516001600160a01b0384169163d21220a7916004808301926020929190829003018186803b15801561010a57600080fd5b505afa15801561011e573d6000803e3d6000fd5b505050506040513d602081101561013457600080fd5b505160601b6001600160601b03191660c05260408051635909c0d560e01b815290516001600160a01b03841691635909c0d5916004808301926020929190829003018186803b15801561018657600080fd5b505afa15801561019a573d6000803e3d6000fd5b505050506040513d60208110156101b057600080fd5b505160015560408051635a3d549360e01b815290516001600160a01b03841691635a3d5493916004808301926020929190829003018186803b1580156101f557600080fd5b505afa158015610209573d6000803e3d6000fd5b505050506040513d602081101561021f57600080fd5b505160025560408051630240bc6b60e21b815290516001600160a01b03841691630902f1ac916004808301926060929190829003018186803b15801561026457600080fd5b505afa158015610278573d6000803e3d6000fd5b505050506040513d606081101561028e57600080fd5b50604001516003805463ffffffff90921663ffffffff199092169190911790556000555060805160601c60a05160601c60c05160601c610b366102fb6000398061021252806105395250806101b152806101d7528061029952508061038d52806105035250610b366000f3fe608060405234801561001057600080fd5b50600436106100c95760003560e01c8063a2e6204511610081578063b4d1d7951161005b578063b4d1d7951461017e578063c5700a0214610186578063d21220a7146101a7576100c9565b8063a2e6204514610164578063a6bb45391461016e578063a8aa1b3114610176576100c9565b80635909c0d5116100b25780635909c0d5146101305780635a3d5493146101385780635e6aaf2c14610140576100c9565b80630dfe1681146100ce5780633ddac953146100f2575b600080fd5b6100d66101af565b604080516001600160a01b039092168252519081900360200190f35b61011e6004803603604081101561010857600080fd5b506001600160a01b0381351690602001356101d3565b60408051918252519081900360200190f35b61011e610368565b61011e61036e565b610148610374565b604080516001600160e01b039092168252519081900360200190f35b61016c610383565b005b6101486104f2565b6100d6610501565b61011e610525565b61018e61052b565b6040805163ffffffff9092168252519081900360200190f35b6100d6610537565b7f000000000000000000000000000000000000000000000000000000000000000081565b60007f00000000000000000000000000000000000000000000000000000000000000006001600160a01b0316836001600160a01b0316148061024657507f00000000000000000000000000000000000000000000000000000000000000006001600160a01b0316836001600160a01b0316145b610297576040805162461bcd60e51b815260206004820152600d60248201527f696e76616c696420746f6b656e00000000000000000000000000000000000000604482015290519081900360640190fd5b7f00000000000000000000000000000000000000000000000000000000000000006001600160a01b0316836001600160a01b0316141561031e5760408051602081019091526004546001600160e01b03168152610303906102fe908463ffffffff61055b16565b6105ef565b71ffffffffffffffffffffffffffffffffffff169050610362565b60408051602081019091526005546001600160e01b0316815261034b906102fe908463ffffffff61055b16565b71ffffffffffffffffffffffffffffffffffff1690505b92915050565b60015481565b60025481565b6005546001600160e01b031681565b60008060006103b17f00000000000000000000000000000000000000000000000000000000000000006105f6565b600354600054939650919450925063ffffffff90811683031690811161041e576040805162461bcd60e51b815260206004820152601960248201527f74696d6520656c6170736564203c206d696e20706572696f6400000000000000604482015290519081900360640190fd5b60405180602001604052808260015487038161043657fe5b046001600160e01b039081169091529051600480547fffffffff00000000000000000000000000000000000000000000000000000000169190921617905560408051602081019091526002548190839086038161048f57fe5b046001600160e01b039081169091529051600580547fffffffff000000000000000000000000000000000000000000000000000000001691909216179055506001929092556002556003805463ffffffff191663ffffffff909216919091179055565b6004546001600160e01b031681565b7f000000000000000000000000000000000000000000000000000000000000000081565b60005481565b60035463ffffffff1681565b7f000000000000000000000000000000000000000000000000000000000000000081565b610563610ade565b600082158061058957505082516001600160e01b03168281029083828161058657fe5b04145b6105da576040805162461bcd60e51b815260206004820152601960248201527f4669786564506f696e743a3a6d756c3a206f766572666c6f7700000000000000604482015290519081900360640190fd5b60408051602081019091529081529392505050565b5160701c90565b60008060006106036107fa565b9050836001600160a01b0316635909c0d56040518163ffffffff1660e01b815260040160206040518083038186803b15801561063e57600080fd5b505afa158015610652573d6000803e3d6000fd5b505050506040513d602081101561066857600080fd5b505160408051635a3d549360e01b815290519194506001600160a01b03861691635a3d549391600480820192602092909190829003018186803b1580156106ae57600080fd5b505afa1580156106c2573d6000803e3d6000fd5b505050506040513d60208110156106d857600080fd5b505160408051630240bc6b60e21b81529051919350600091829182916001600160a01b03891691630902f1ac916004808301926060929190829003018186803b15801561072457600080fd5b505afa158015610738573d6000803e3d6000fd5b505050506040513d606081101561074e57600080fd5b5080516020820151604090920151909450909250905063ffffffff808216908516146107f05780840363ffffffff811661079b6dffffffffffffffffffffffffffff808616908716610804565b600001516001600160e01b031602870196508063ffffffff166107de856dffffffffffffffffffffffffffff16856dffffffffffffffffffffffffffff16610804565b516001600160e01b0316029590950194505b5050509193909250565b63ffffffff421690565b61080c610af1565b6000821161084b5760405162461bcd60e51b8152600401808060200182810382526026815260200180610b046026913960400191505060405180910390fd5b826108655750604080516020810190915260008152610362565b71ffffffffffffffffffffffffffffffffffff831161090c57600082607085901b8161088d57fe5b0490506001600160e01b038111156108ec576040805162461bcd60e51b815260206004820152601e60248201527f4669786564506f696e743a3a6672616374696f6e3a206f766572666c6f770000604482015290519081900360640190fd5b6040518060200160405280826001600160e01b0316815250915050610362565b6000610928846e01000000000000000000000000000085610986565b90506001600160e01b038111156108ec576040805162461bcd60e51b815260206004820152601e60248201527f4669786564506f696e743a3a6672616374696f6e3a206f766572666c6f770000604482015290519081900360640190fd5b60008060006109958686610a41565b91509150600084806109a357fe5b8688099050828111156109b7576001820391505b9182900391816109d5578483816109ca57fe5b049350505050610a3a565b848210610a29576040805162461bcd60e51b815260206004820152601a60248201527f46756c6c4d6174683a2046554c4c4449565f4f564552464c4f57000000000000604482015290519081900360640190fd5b610a34838387610a6e565b93505050505b9392505050565b6000808060001984860990508385029250828103915082811015610a66576001820391505b509250929050565b60008181038216808381610a7e57fe5b049250808581610a8a57fe5b049450808160000381610a9957fe5b60028581038087028203028087028203028087028203028087028203028087028203028087028203029586029003909402930460010193909302939093010292915050565b6040518060200160405280600081525090565b6040805160208101909152600081529056fe4669786564506f696e743a3a6672616374696f6e3a206469766973696f6e206279207a65726fa164736f6c6343000606000a",
  "linkReferences": {},
  "deployedLinkReferences": {}
}